:1000000028C142C123C340C13FC13EC13DC13CC123
:100010006CC43AC139C138C1DDC436C135C1000034
:100020000000A60EF9154C1DF22B3E498A6601020E
:1000300003040506070200FFFF00FF0000000000A8
:100040000000FF0000000078FF000C3F96FFFF005B
:10005000000000000000FF00000000FF00146E968A
:10006000FF000000000000FF000000FF001E78FFFE
:100070000000000000FF0000FF001EFF0000000065
:10008000FF00FF00FF000000FF0000FF00FF000076
:100090000000000000000000000000000000000060
:1000A0000000000000000000000000000000000050
:1000B0000000000000000000000000000000000040
:1000C0000000000000000000000000000000000030
:1000D0000000000000000000000000000000000020
:1000E0000000000000000000000000000000000010
:1000F00000000000000000000000000000000507F4
:100100000A0E1114181C2024282D32373C41474D6B
:1001100053595F666D747B828A929AA2AAB3BCC55A
:10012000CED7E1EBF5FF000000000000000000006A
:1001300000000000000000000000000000000000BF
:1001400000000000000000000000000000000000AF
:10015000000000000000000000000000000000009F
:1001600000000005070A0D1013171A1E2125282C60
:100170003034383C4045494E52575C60656A6F7573
:100180007A7F858B90969CA2A8AEB5BBC2C9CFD60C
:10019000DDE4ECF5FFFFFFFFFFFFFFFFFFFFFFFFC9
:1001A000FFFFFFFFFFFFFFFFFFFFFFFFFFFFFFFF5F
:1001B000FFFFFFFFFFFFFFFFFFFFFF00030303043D
:1001C0000404050505060607070808090A0B0C0EB6
:1001D00010121416191C1F2225292D3135393D42C4
:1001E000474C51565C62686E747D848B9299A1A9CC
:1001F000B1B9C2CBD4DDE7F1FBFFFFFFFFFFFFFF8B
:10020000FFFFFFFFFFFFFFFFFFFFFFFFFFFFFFFFFE
:10021000FFFFFFFFFFFFFFFFFFFFFFFFFFFFFFFFEE
:10022000FFFFFFFFFFFFFFFFFFFFFFFFFFFFFFFFDE
:10023000FFFFFFFFFFFFFFFFFFFFFFFFFFFFFFFFCE
:10024000FFFFFFFFFFFFFFFFFFFFFFFFFFFFFFFFBE
:10025000FF0011241FBECFE5D2E0DEBFCDBF10E00E
:10026000A0E6B0E0E8EDFCE102C005900D92AA39ED
:10027000B107D9F720E0AAE9B0E001C01D92AF3F75
:10028000B207E1F7ADD826CDBBCE19BC18BC1BBC5C
:10029000089520ED37E0019708F40895F9013197AA
:1002A000F1F7F9CF0F931F93CF93DF93E091F7000E
:1002B000F0E0E25DFF4F84918093E2001092CE0067
:1002C0001092E8001092D8009091FC00992311F14F
:1002D0009091FB009093D9001092CF001092E9000A
:1002E00092E0C92FD0E0AE0148525F4FBE01685185
:1002F0007F4FC253DF4F30E020E0082F10E020177F
:10030000310754F0890F8093E200DF91CF911F9164
:100310000F91089591E0E5CFA091F700B0E0AA0F0A
:10032000BB1FAC57BF4FED91FC91E20FF31FE4915F
:10033000DA01ED93AD01A091F700B0E0AA0FBB1F69
:10034000AC58BF4FED91FC91E20FF31FE491DB013C
:10035000ED93BD01A091F700B0E0AA0FBB1FAC590F
:10036000BF4FED91FC91E20FF31FE491E9932F5FF2
:100370003F4FC5CF811101C088CF815090E0FC0173
:10038000E057FF4F2491FC01EA5DFE4F3491845405
:100390009E4FFC01849189BD38BD2BBD089590E02E
:1003A000FC01E852FF4F20812093E400FC01E8515A
:1003B000FF4F20812093CA0082539F4FFC01808110
:1003C0008093FD008091FD009091CA002091E4008F
:1003D00029BD98BD8BBD089581E08093CD0093E049
:1003E0009093FB008093CB0022E02093E600909353
:1003F000F7008093FC001092CC001092FA008093DA
:10040000F9001092E3008093F6000895CF93C62F71
:100410009FEF9BBD90E03DDF1BBC8C2F90E0CF9108
:1004200038CF8091CD008093B9001092CD0010920A
:10043000FE008DE58093BB0008958091B900809304
:10044000CD001092C6008091CD00882319F0109243
:10045000BB0008958091BA008093BB000895EF928D
:10046000FF920F931F93CF93DF93C82F8B017B01D4
:10047000EE0CFF1CEE0CFF1CD2E3C11107C0DF9194
:10048000CF911F910F91FF90EF900895D9BD18BCA7
:100490001BBCC801FEDE19BC18BC1BBCC701F9DEC1
:1004A000C150EBCF0F931F93CF93DF93C82F162F1D
:1004B00002E3C11105C0DF91CF911F910F91089503
:1004C000D091BB00D113F7CF8091F600882321F0A3
:1004D0008091E300811103C009BD18BC1BBC8AEFE9
:1004E00090E0D7DE19BC18BC1BBC87E791E0D1DED9
:1004F0008091BB00D813DFCFC150DBCF1F93CF93C8
:10050000DF93D62F6AE0ABDB192F6D2FCBDFC091C5
:10051000BB00CD1310C080E293E0BBDE6C2F812FB7
:10052000C1DF8091BB00C81306C080ED97E0DF916A
:10053000CF911F91AECEDF91CF911F910895EF9291
:10054000FF920F931F93CF93C82F06E910E08630D8
:1005500010F40AEF10E07801EE0CFF1C0EC019BC7D
:1005600018BC1BBCC80195DE8091CD00882369F0C2
:100570008091E500FFDEC7018CDEC15080F7CF918E
:100580001F910F91FF90EF9008958091FD00909141
:10059000CA002091E40029BD98BD8BBDECCFCF935C
:1005A000C82F68E270E082E05ADF80EF90E071DEF1
:1005B00064E670E08C2F53DF1092BC00CF91089559
:1005C00096B38091A400880F93FB992790F921E0BE
:1005D0009227892B8093A4009091A300992339F04E
:1005E0008F708093A3008091A30090E008958170A4
:1005F000F8CF8091BB00803120F48091BB008093C4
:10060000BA008091BB008F5F8093BB009091E200A5
:10061000891710F01092BB0008958091BB00809361
:10062000BA008091BB00811106C08091E200815028
:100630008093BB0008958091BB00F9CF8BB7806297
:100640008BBF08958BB78F7D8BBF08951895F89455
:10065000A89581B5886181BD80E481BD78940895B5
:10066000F894A89584B7877F84BF81B5886181BDE0
:1006700011BC789408958CE087B9A29A87EC86B96A
:100680000895379808951092B4001092B300109214
:10069000A9001092A800E4DFF4DF1092B8001092D5
:1006A000B7008EDF892B81F4C9DF85B7806285BFF3
:1006B00085B7846885BF8B7F85BF889585B78F7D1B
:1006C00085BFC0DFD8DFC3CF80E190E0E2DDE9CFB6
:1006D000FF920F931F93CF93DF931092A600109277
:1006E000A5000091A5001091A6000038110528F082
:1006F0001092A6001092A5005EC0C801E3DAF82EA1
:100700008093F800C8010196DDDAD82F8093C900E4
:10071000C8010296D7DAC82F8093F400C801039667
:10072000D1DA8D3539F00C5F1F4F1093A60000937E
:10073000A500D7CF8F2D87708093BB008F2D869516
:10074000869586958F708093F700FF1CFF24FF1C11
:10075000F092CD008D2F81708093CC00D1FB882743
:1007600080F98093FA008D2F869586958770809307
:10077000FB00D295D695D770D093CB008C2F81708B
:100780008093C800C1FB882780F98093F600C2FBE4
:10079000882780F98093F900C3FB882780F980932C
:1007A000E300C4FB882780F98093FC00C295C695BE
:1007B000C370C093E6008091F9008093F200DF914E
:1007C000CF911F910F91FF9008958EBB6DBB84E276
:1007D0008CBB86E28CBBE199FECF0895CF93DF936B
:1007E0008091F7009091BB006091CD00880F880F39
:1007F000880F679566276795682B692B6093F800CB
:100800002091FA003091CC008091FB009091CB00B8
:10081000220F880F880F822B832B9295990F907E41
:10082000892B8093C9004091F6005091C8008091B7
:10083000F9003091E3002091FC009091E600440F14
:10084000880F880F842B852B330F330F330F382BF2
:10085000822F8295807F282F232B892F8295880FC6
:10086000807E822B8093F400C091A500D091A600D9
:10087000CE0104968F7799279093A6008093A500C8
:10088000A4DF8091A5006091C9008F5F9EDF8091F9
:10089000A5006091F4008E5F98DFCEBB84E18CBB35
:1008A00086E18CBBE199FECF8C2F8F5F8EBB84E1FC
:1008B0008CBB86E18CBBE199FECF8C2F8E5F8EBB0B
:1008C00084E18CBB86E18CBBE199FECFCD5FCEBBD2
:1008D00084E18CBB86E18CBBE199FECF8091A500C1
:1008E0006DE58D5FDF91CF9170CF1F920F920FB6A4
:1008F0000F9211245F936F937F938F939F93AF9386
:10090000BF9364B175B18091AA00813009F5CB0124
:1009100096958795945DAFD96D5F7F4F8091AC00C0
:10092000882309F44FC08091AC008617170628F47D
:100930008091AC008F5F8093AC008091AC008617F3
:10094000170631F028F08091AC0081508093AC0004
:100950008091AA008330D9F46F5071408091AB0030
:10096000882399F18091AB008617170628F48091AF
:10097000AB008F5F8093AB008091AB0086171706AA
:1009800031F028F08091AB0081508093AB008091D2
:10099000AA008F5F8093AA00843010F01092AA0002
:1009A0008091AA008230A0F48CE087B9BF91AF910A
:1009B0009F918F917F916F915F910F900FBE0F90DC
:1009C0001F9018956093AC00C3CF6093AB00DFCF4E
:1009D0008FE8EBCF1F920F920FB60F9211242F9337
:1009E0003F934F935F936F937F938F939F93AF93B7
:1009F000BF93EF93FF938091F5008823A1F081507E
:100A00008093F500FF91EF91BF91AF919F918F91EE
:100A10007F916F915F914F913F912F910F900FBEFA
:100A20000F901F9018958091A8009091A900892B94
:100A300049F08091A8009091A90001979093A90096
:100A40008093A800BDDD2091B7003091B800892BBC
:100A500009F405C2203D87E0380730F42F5F3F4F8F
:100A60003093B8002093B7008091B7009091B80000
:100A7000823E24E0920791F42091C70021110EC01C
:100A80001092C6001092E5001092BB001092C500B3
:100A900081E08093C0001092BF00B4CF3091BF00BE
:100AA0002091B0003323B1F01092BC002111AACFE5
:100AB0008332910531F48091BF008F5F8093BF0036
:100AC000A1CF8634910509F09DCF81E08093B000DD
:100AD0008FE0F4CF21119CC02091C700222351F058
:100AE0000197C9F48091C000811115C086E78093F9
:100AF000C60011C12091C000222309F49FC00197B4
:100B000051F48FEF8093C6008093E5008091FB0045
:100B100089BD18BC1BBC8091CD00811119C080918A
:100B2000B7009091B800489799F48091C000811166
:100B30000FC08091BB00803108F026C18091C700B2
:100B4000811122C18091CC00882309F415C151DDA7
:100B50008091B7009091B8008B34910529F5809170
:100B6000B600823009F028C18091B3009091B400A2
:100B70000E9708F021C18091CD00882321F080914B
:100B8000C000813089F41092C6001092E5001092E6
:100B9000BB001092C5009091C00081E0282F291B56
:100BA0002093C0008093C1008091C000811130C0AB
:100BB0008091C70081112CC08091CD0081110FC0A0
:100BC0008091B7009091B800883C910541F48091E4
:100BD000B600823021F08091BB00803559F48091BD
:100BE000CD008823A9F08091B7009091B800843F90
:100BF000914071F41092BB001092C6001092C50093
:100C000019BC18BC1BBC81E08093BF001092BD00D2
:100C10001092A1001092A00088E391E090936100EF
:100C20008093600080919A008F5F80939A00837018
:100C300009F0E8CE86B1886486B9E4CE2091CD0073
:100C4000222309F468CF429708F465CF8091C00051
:100C5000811161CF8091C10081115DCF8091BB0076
:100C6000803508F058CF1092A2008091C5008130E5
:100C700009F45EC088F0823009F462C0833009F064
:100C80004ACF8093C4008091C600823008F46CC0C3
:100C90008091C60081505DC08091C60081111BC04B
:100CA00081E08093C50087E18093E7008091FB009D
:100CB00089BD18BC1BBC8FEF8093C6008093E500F4
:100CC0008091C200811104C08091C6008093C2004F
:100CD0001092C30020CF9091C4008091C30088235C
:100CE00069F09093C5001092C3008091C6008F3FB9
:100CF00051F482E08093C50081E0F9CE85E0891B44
:100D00008093C500F2CF8091C600863940F083E021
:100D10008093C50086E98093E5002CDBFCCE8091B2
:100D2000C600813009F0F7CE82E08093C500F3CE93
:100D30008091E70081508093E7008111ECCED9CFFC
:100D40008093C4008091C600863970F48091C600FB
:100D50008F5F8093C6008093E5008091C6008093EA
:100D6000C2008091E500D9CF84E08093C5008DDA80
:100D700087E090E08EDAF5CF8091BB00813011F4EE
:100D80001092BB004ADCE4CE8091BB008B3508F4A6
:100D9000DFCE8091FE00882361F081508093FE00B9
:100DA000E091FE00F0E0EC56FF4F80818093BB00A5
:100DB000CFCE80916300F1CF8091C0008111F4CE3D
:100DC0008091B6008130A1F42091B3003091B4003D
:100DD0002E30310568F49091CD009111E5CE90E56B
:100DE0009093BB008093C10019BC18BC1BBCDCCE27
:100DF0008091BB008B3510F020DBD6CE8091BB00FC
:100E0000803571F41092BB0019BC18BC1BBC85E185
:100E10008093BF001092BD0081E08093B000C4CEEB
:100E20008091BB00823539F41092BB0019BC18BC0C
:100E30001BBC8EE0EDCF8091CD008111B5CE8091AD
:100E4000E600882309F4B0CE8091BB00803509F418
:100E5000ABCE8091C7008111A7CEE3DAA5CE109268
:100E6000B0008091BF008823C1F02115310579F0D1
:100E70002831310528F48091BD008F5F8093BD003B
:100E80001092BC001092B8001092B700CBCE8091A7
:100E9000BC008F5F8093BC00F5CF232B09F41FC1EA
:100EA0008091C700811104C08091C000882329F07F
:100EB0001092C6001092E500E8D92091CD008091F3
:100EC000B7009091B800222309F47AC01092C500AF
:100ED000429708F072C08091B6008F5F8093B60091
:100EE0008091B600813009F05AC08091BB00809398
:100EF0009F008091BB00803138F48091C600863914
:100F000019F48FEF80939F008091BB00803541F0F2
:100F10008091BB00813521F08091BB00823549F47E
:100F20001092BB001092C6001092E50081E0809301
:100F3000C1008091C60080939E008091C000811105
:100F40002EC08091C10081112AC08091C7008111FB
:100F500026C08091C600811129C08091C2008111F4
:100F600003C081E08093C20081E08093C30082E0EF
:100F70008093C4008091C2008093C6008093E500F6
:100F800089EA93E09093A9008093A8008091E500FE
:100F90008F3F89F48091FB0089BD18BC1BBC109267
:100FA000C1001092B4001092B3006CCF1092C60032
:100FB0001092E500EBCFDED9F2CF1092B600EFCF62
:100FC000489708F089C08091BB00803541F080913E
:100FD000BB00813521F08091BB00823561F48091A6
:100FE000BB0080939F001092BB008091B6008F5F82
:100FF0008093B600D6CF8091BB00811122C0809132
:10100000B60081111EC081E08093B6008091C000BF
:101010008111C7CF8091FA008823D9F08091B50063
:101020008823B9F08091BB00811113C08091C70063
:101030008111B7CF8091B5008093BB001092B500AD
:10104000B0CF8091B600882309F38091B6008F5FFE
:10105000DBCF8091BB00803110F58091C7008111FA
:10106000A0CF8091BB00882391F08091B300909134
:10107000B4008B34910558F08091BB008093B5008B
:101080008091BB008093BA001092BB008ACF809100
:10109000CC00882311F0C1DA84CFABDA82CF809103
:1010A000B3009091B4008B34910510F0C6D979CF7C
:1010B0008091E6008130D1F3E091FE00EF5FE09394
:1010C000FE0080916300E81788F7F0E0EC56FF4FD0
:1010D00080818093BB0065CF1092B60062CF809173
:1010E000B3009091B40001969093B4008093B30044
:1010F000892B31F480E395E79093B4008093B3009B
:101100008091B3009091B4000F9708F441C0809192
:10111000B6008530C9F48091CD008823B9F1809163
:10112000C000811133C08091C70081112FC081E0C0
:101130008093C7001092C6001092E5001092BB0089
:1011400019BC18BC1BBC22C08091B600843009F0C9
:1011500077C08091CD00811104C08091C0008823A8
:10116000A9F08091C700811111C01092C6001092A1
:10117000E5001092BB001092C5009091C00081E084
:10118000282F291B2093C0008093C1001092B60025
:101190008091CB00823000F18091CD00882309F44A
:1011A000B4C08091E50088588737B0F48091A000E2
:1011B0009091A10001969093A1008093A0002091AE
:1011C000B1003091B2002817390730F48EE78093D0
:1011D000C6008093E500CED88091CD00882391F0A1
:1011E0008091C600823070F08091C600863950F43C
:1011F0008091B3009091B4008C34910518F081E097
:101200008093C3008091600090916100009729F065
:1012100001979093610080936000809160009091AD
:101220006100892B09F0BAC09091BB008091CD007C
:1012300081118CC081E0913009F490C080E08EC0B3
:1012400080919F0090EB980F923080F49091B600BF
:10125000923009F09BCF803539F481E58093BB0053
:1012600081E08093C1006CCF82E5F8CF8091CD0002
:10127000882309F48BCF8091C000811187CF8091A2
:10128000C700811183CF8091B600833049F480E597
:101290008093BB0081E08093C10019BC18BC1BBCCB
:1012A0008091B600823009F071CF80919F008F3F0E
:1012B000C9F48091E600882311F0B3D867CF8091FC
:1012C000C200863951F08091A2008093C6008093BD
:1012D000E5008091E5004ED859CF1092C6001092DB
:1012E000E500F7CF86E98093C6008091C600809321
:1012F000E50040D880919E008093A20089EA93E0A7
:101300009093A9008093A80041CF8091BB008031C9
:1013100008F062CFE091BB00F0E0E253FF4F808124
:101320008F3F09F059CF8091A0009091A1000196C4
:101330009093A1008093A0002091B1003091B20061
:101340002817390708F048CF68D946CF9091E500B3
:1013500081E0913019F09F3F09F070CF2091AC00EF
:1013600030E08823A9F18CE190E0281739079CF53B
:1013700080919D008F5F80939D0080919D008830BB
:1013800068F081E08093AF008093AE0010929D00E2
:1013900088E391E090936100809360008091AE00BB
:1013A000882309F46FCD80919B0090919C00019659
:1013B00090939C0080939B00843F914009F062CD04
:1013C00081E08093AD0010929C0010929B005ACD5A
:1013D0008EE190E0CACF10929D001092AE00CDCF6A
:1013E00017BA88E088BB85BB83E187BB81EA8ABDE9
:1013F00081E083BF80BF80E68CBD8FEF8DBD3BD980
:10140000479A85B7877E806185BFF8941BD9A895D8
:1014100084B7877F84BF81B5886181BD11BCDCD76B
:1014200057D98AEF90E04ED49FEF980F9E3F10F46B
:101430008093620037D7E091CB00F0E0EE0FFF1F02
:10144000E25EFF4F859194919093B2008093B1003A
:101450008091C800882309F400C18091CD008111DA
:10146000FCC08091FF00811102C0C3D8B7D9809120
:10147000BB0081110CC08091CD00811104C080910E
:10148000C800811104C060E570E082E0E8D71092E6
:10149000FF008AEF8093F30089E18093F500D7D8AD
:1014A000612C712C00E0CFE0B8E25B2ED1E014E6B5
:1014B000412E1FEF88E3C82EDD24D3949CEFE92E44
:1014C0009AE0F92E25E0A22EB12C33243A94809193
:1014D000BF008111E2C18091C0008017A1F000918E
:1014E000C00019BC18BC1BBC6BE470E084E0B7D72B
:1014F0001092C1008091C000882309F4B1C080918E
:10150000BB008093F3008091C700871569F070904D
:10151000C7006CE370E082E0A2D78AEF90E0B9D612
:101520006BE470E083E09BD79091BB008091F30067
:10153000981761F08091BB00803108F094C08091D1
:10154000BB002DD78091BB008093F3008091AF004A
:10155000882309F48AC18091CD00882309F471C1E0
:101560008091E5008823B1F0813019F08F3F09F0B8
:1015700055C187E08093E50088E0E1D71092C6006E
:101580001092E5001092C5008091E500F3D68AEF35
:1015900090E07FD61092AF008091CB00813059F55A
:1015A0009091AB0080916200981728F18091A8007B
:1015B0009091A900892BF9F48091CD00882309F43A
:1015C00060C12091E5008FE8820F8E38A0F4822F51
:1015D00066E045D3622F681B770B613771050CF409
:1015E0004CC1281B2093E5008091E500C3D6F09202
:1015F000A900E092A8008091AE0034EE832E37E57A
:10160000932E811104C026E3822E99249394809115
:10161000CD00811104C08091BB00882341F08091EE
:10162000CD00882391F08091E50081110EC0C8D7CC
:10163000892B59F48091B3009091B40088169906D3
:1016400020F481E090E025D61ED88091A700882361
:1016500009F43DCF1092A7003ACF1092BB0007CFFC
:101660003092F30050CF8091BB008093F30019BCFF
:1016700018BC1BBC8091BB00803579F480E991E0F7
:1016800008D61092C1008091BB00803509F05ECF72
:101690008091AC0060E532D7F6CF8091BB008135F8
:1016A00079F48AEF90E0F5D51092C1008091BB00EB
:1016B000813509F04BCF8091AB0061E51FD7F6CFA4
:1016C0008091BB00823571F48AEF90E0E2D51092F0
:1016D000C1008091BB00823509F038CF62E58CE013
:1016E0000DD7F7CF8091BB008B3549F48091BB00BB
:1016F0008B3509F02BCF69E28EE088D6F7CF809149
:10170000BB008C35F1F48091BB008C3509F01ECF05
:10171000A8E09A2E8091BB008C3531F468E284E118
:1017200075D69A949110F6CFF8E09F2E8091BB0069
:101730008C3549F760E588E269D69A949110F6CF26
:10174000E2CF8091BB008D3551F58091BB008D3586
:1017500021F019BC18BC1BBCF9CEE4E09E2E809190
:10176000BB008D3579F419BC18BC1BBD85E090E039
:1017700090D519BD18BC1BBC81E490E08AD59A9421
:101780009110EDCF7AE0972E8091BB008D35E9F670
:1017900088E490E07ED59A949110F6CFD6CF8091D0
:1017A000BB008E35D9F48091BB008E3509F0CECECA
:1017B0008CE291E06ED56DE78DE728D66DE78DE779
:1017C00025D66FE0962E8091BB008E3561F784E6BA
:1017D00090E05FD59A949110F6CFE5CF8091BB0051
:1017E0008F3509F0B3CE8091BB008F3509F0AECEB6
:1017F0008CE291E04ED560EF80EF08D660EF80EF8D
:1018000005D654E6952E8091BB008F3561F784E6AE
:1018100090E03FD59A949110F6CFE5CF83E08FD634
:101820008091E5008A3050F090E0880F991F880F72
:10183000991FB50134D26093E500A6CED093E500A0
:10184000A3CE8091BB00882309F4A4CE8091BB0075
:10185000813049F488E073D68091BB00803108F074
:1018600099CEDBD697CE83E0F6CF8091AD0088236A
:1018700009F492CE1092AD008FCE80E78093E50000
:10188000B3CE8091BB00882309F4B5CE8091BB0014
:10189000803108F0B0CEC1D6AACE8091BD008615A9
:1018A00081F06090BD008091BD00882351F084E1FB
:1018B00089BD18BC1BBC84E690E0EBD419BC18BCF5
:1018C0001BBC9091BF008091BE00981709F4ABC17A
:1018D0008091BF008093BE001092BC008091BF0039
:1018E000873109F4CBC0E0F58E3009F495C030F5AE
:1018F000813009F472C0833009F47CC08091CD003E
:10190000882309F42FC18091BF00853009F4FDC000
:10191000863009F417C1843009F069C08091BD0098
:10192000882309F4C5C08091BD00883008F0C0C08C
:101930008091BD008093FB00B5D4B9C08F3009F40D
:1019400088C08531D9F680E991E0A3D481E027D61B
:101950008091BF008F5F8093BF001092BD0047C091
:10196000883209F444C090F4883109F496C0893172
:1019700029F68091BD00882309F468C08091BD00DC
:10198000809581708093F60029D760C0843609F471
:1019900091C0853609F49AC0893209F0AFCF8091A1
:1019A000BD00882309F4A1C08091BD00873008F0F4
:1019B0009CC08091BD008F5F8093CB000FD7E091DA
:1019C000CB00F0E0EE0FFF1FE25EFF4F8591949198
:1019D0009093B2008093B10088C080E991E059D41F
:1019E00081E0DDD58091BF008F5F8093BF001092B2
:1019F000BD006DCD8091BD00882359F08091BD0060
:101A0000893038F48091BD00809581708093CD003D
:101A1000E5D682E0C4D5EBCFDFD4E0D68091F900E3
:101A20008093F2003FD48CE3809362006CE38AEFF2
:101A3000CCD6E091CB00F0E0EE0FFF1FE25EFF4F4F
:101A4000859194919093B2008093B100C093BF00B0
:101A5000CECF1092BF0068E270E085E000D5109212
:101A6000C6001092E5001092BB008091CD00882343
:101A700009F4BDCF8091C6007DD4B9CF8091BD005F
:101A8000882339F28091BD00809581708093F900A0
:101A90008091F9008093F200BBCF8091BD00882334
:101AA00039F08091BD00809581708093E30096D6D7
:101AB00083E0B0CF68E270E083E0D1D419BC18BCF9
:101AC0001BBDD092A900C092A80091CF19BC18BC30
:101AD0001BBC8091A8009091A900892B31F46091E2
:101AE000AB00609362008AEF70D68091CD008823AE
:101AF00041F084E054D585E08093BF008093BE0020
:101B000076CF88E04CD589E0F7CF8091BD00813059
:101B100029F41092CB0062D684E07CCF8091BD0086
:101B2000823031F4D093CB0059D64092BF005FCFC2
:101B30008091BD00833081F768E270E090D45092CC
:101B4000BF0055CF8091BD00882309F47FCF8091DD
:101B5000BD00843008F07ACF8091BD008150809321
:101B6000E60012CFE091BF00E450E73008F03FCF2D
:101B7000F0E0E254F24F8091BD00099406C013C01A
:101B80001DC027C031C03EC0DFCF882309F490CFED
:101B90008091BD008D3008F08BCF8091BD008150C9
:101BA0008093F700C9CE882309F4B6CF8091BD0099
:101BB000809581708093FC0075D3ADCF882339F078
:101BC0008091BD00809581708093CC0007D685E020
:101BD00021CF882339F08091BD008095817080935A
:101BE000FA00FCD586E016CF882351F08091BD0025
:101BF000883030F48091BD008093FB0053D3EED544
:101C000087E008CF813029F41092CB00E7D588E037
:101C100001CF8091BD00823009F484CF8091BD0056
:101C20008330A9F789CF8091BD00882321F080916E
:101C3000BC008E3770F48091BF00843609F447CC25
:101C40008091BD00811143CC8091BC008C3D08F493
:101C50003ECC8091BF008F5F8093BF0038CC991B32
:101C600079E004C0991F961708F0961B881F7A9593
:101C7000C9F780950895AA1BBB1B51E107C0AA1F95
:101C8000BB1FA617B70710F0A61BB70B881F991F1D
:101C90005A95A9F780959095BC01CD01089597FBC1
:101CA000072E16F4009406D077FD08D0E4DF07FC79
:101CB00005D03EF4909581959F4F0895709561955C
:101CC0007F4F0895E199FECF9FBB8EBBE09A992785
:081CD0008DB30895F894FFCFD5
:101CD80038013C058D0087007E00720063005100CA
:101CE8003C0036008E0089008100760068005700AD
:101CF800430038008F008B0084007A006D005D007F
:0A1D08004A003A005D5B5C5E5F007C
:00000001FF
